:020000040800F2
:1000000000500020213E0008A9090008AB090008A3
:10001000AD090008AF090008B109000800000000A0
:1000200000000000000000000000000001250008A2
:10003000B309000800000000A1250008E52500081C
:10004000693E0008693E0008693E0008693E0008F4
:10005000693E0008693E0008693E0008693E0008E4
:10006000693E0008693E0008693E0008693E0008D4
:10007000693E0008693E0008693E0008693E0008C4
:10008000693E0008693E0008693E0008693E0008B4
:10009000693E0008693E0008693E0008693E0008A4
:1000A000693E0008693E0008693E0008693E000894
:1000B000693E0008693E0008B5090008693E00086D
:1000C000693E0008693E0008693E0008693E000874
:1000D000693E0008693E0008693E0008693E000864
:1000E000C5090008693E0008693E000800000000DC
:1000F0000000000000000000000000000000000000
:0C01000000000000000000005FF808F1A3
:10011000034613F8012B002AFBD1181A0138704747
:100120004FF0FF0C1CEAD0521EBF1CEAD15392EADA
:100130000C0F93EA0C0F6FD01A4480EA010C4002B6
:1001400018BF5FEA41211ED04FF0006343EA501010
:1001500043EA5111A0FB01310CF00040B1F5000F52
:100160003EBF490041EAD3715B0040EA010062F101
:100170007F02FD2A1DD8B3F1004F40EBC25008BFEB
:1001800020F00100704790F0000F0CF0004C08BF09
:1001900049024CEA502040EA51207F3AC2BFD2F1D6
:1001A000FF0340EAC250704740F400004FF00003E4
:1001B000013A5DDC12F1190FDCBF00F0004070471E
:1001C000C2F10002410021FA02F1C2F1200200FA5C
:1001D00002FC5FEA310040F1000053EA4C0308BF23
:1001E00020EADC70704792F0000F00F0004C02BF74
:1001F000400010F4000F013AF9D040EA0C0093F0EF
:10020000000F01F0004C02BF490011F4000F013B48
:10021000F9D041EA0C018FE70CEAD15392EA0C0FB6
:1002200018BF93EA0C0F0AD030F0004C18BF31F021
:10023000004CD8D180EA010000F00040704790F0F7
:10024000000F17BF90F0004F084691F0000F91F09B
:10025000004F14D092EA0C0F01D142020FD193EA61
:100260000C0F03D14B0218BF084608D180EA0100E9
:1002700000F0004040F0FE4040F40000704740F0C5
:10028000FE4040F44000704780F0004002E000BFB4
:1002900081F0004142001FBF5FEA410392EA030F71
:1002A0007FEA226C7FEA236C6AD04FEA1262D2EBBB
:1002B0001363C1BFD218414048404140B8BF5B42C0
:1002C000192B88BF704710F0004F40F4000020F059
:1002D0007F4018BF404211F0004F41F4000121F06F
:1002E0007F4118BF494292EA030F3FD0A2F10102B9
:1002F00041FA03FC10EB0C00C3F1200301FA03F1F7
:1003000000F0004302D5494260EB4000B0F5000F19
:1003100013D3B0F1807F06D340084FEA310102F1D8
:100320000102FE2A51D2B1F1004F40EBC25008BF8A
:1003300020F0010040EA03007047490040EB000054
:10034000013A28BFB0F5000FEDD2B0FA80FCACF155
:10035000080CB2EB0C0200FA0CF0AABF00EBC25082
:1003600052421843BCBFD0401843704792F0000F70
:1003700081F4000106BF80F400000132013BB5E7C3
:100380004FEA41037FEA226C18BF7FEA236C21D039
:1003900092EA030F04D092F0000F08BF084670479E
:1003A00090EA010F1CBF0020704712F07F4F04D16C
:1003B000400028BF40F00040704712F100723CBF7F
:1003C00000F50000704700F0004343F0FE4040F4A9
:1003D000000070477FEA226216BF08467FEA236367
:1003E0000146420206BF5FEA412390EA010F40F452
:1003F000800070474FF0000304E000BF10F000439E
:1004000048BF40425FEA000C08BF704743F0964384
:1004100001464FF000001CE050EA010208BF70479F
:100420004FF000030AE000BF50EA010208BF704726
:1004300011F0004302D5404261EB41015FEA010C3B
:1004400002BF84460146002043F0B64308BFA3F133
:100450008053A3F50003BCFA8CF2083AA3EBC25315
:1004600010DB01FA02FC634400FA02FCC2F1200234
:10047000BCF1004F20FA02F243EB020008BF20F06B
:100480000100704702F1200201FA02FCC2F12002D1
:1004900050EA4C0021FA02F243EB020008BF20EAC6
:1004A000DC7070474FEA4002B2F1FE4F0FD34FF0BD
:1004B0009E03B3EB12620DD94FEA002343F00043D1
:1004C00010F0004F23FA02F018BF404270474FF07F
:1004D0000000704712F1610F01D1420205D110F006
:1004E000004008BF6FF0004070474FF000007047B9
:1004F00010B5054C237833B9044B13B10448AFF35E
:1005000000800123237010BD600000200000000067
:10051000D847000808B5034B1BB103490348AFF3A4
:10052000008008BD0000000064000020D8470008DB
:1005300030B589B000240494059406940794254BA3
:100540009A6942F010029A619A6902F010020092D0
:10055000009A9A6942F020029A619A6902F0200298
:100560000192019A9A6942F004029A619A6902F032
:1005700004020292029A9A6942F008029A619B6907
:1005800003F008030393039B134D224620212846C2
:1005900000F0EEFB4FF400530493104B05930694C8
:1005A00004A90F4800F0D6FA2023049301230593F1
:1005B00006940223079304A9284600F0CBFA2246AA
:1005C0000521282000F0A8FA282000F0B5FA09B08B
:1005D00030BD00BF001002400008014000001110B3
:1005E0000010014000B589B0114800F0F1F911493F
:1005F000FFF796FDFFF756FF0F4B83FB0023C21753
:10060000C2EB6312642303FB12030C49684603F038
:100610002DFC6846FFF77CFD4FF47A7382B2694681
:10062000074801F089FD4FF47A7001F0A3FEDBE783
:10063000D40000200000C8421F85EB51F04700089D
:100640008C00002008B5012001F094FEFBE708B5FE
:10065000012001F08FFEFBE708B5012001F08AFEC2
:10066000FBE7000008B50268034B9A4200D008BDC2
:1006700000F0FAF9FBE700BF0008004072B6FEE7A1
:1006800008B50A480A4B03600A4B436000238360A5
:10069000C3604FF48042026143618361C3610362BE
:1006A00000F06AFD00B908BDFFF7E8FFD4000020A4
:1006B00000540040A086010008B50A480A4B0360B8
:1006C0004FF4E133436000238360C36003610C2275
:1006D00042618361C36101F0FFFC00B908BDFFF70F
:1006E000CDFF00BF8C0000200044004000B591B059
:1006F0002822002106A803F0D9FB002301930293CE
:10070000039304930593012306934FF4A0220792C9
:100710000A9302230D934FF480330E934FF4E013AA
:100720000F9306A800F0C0FF80B90F2301930221A8
:100730000291002303934FF480620492059301A871
:1007400001F0E4F920B911B05DF804FBFFF796FF62
:10075000FFF794FF08B500F075F9FFF7C7FFFFF743
:10076000E7FEFFF78DFFFFF7A7FF01F045FD0F4AFA
:1007700000210F4801F088FD0E4B18600E4A002141
:100780000E4801F081FD0E4B18600E4A00210E4804
:1007900001F07AFD0D4B18600D4A00210D4801F063
:1007A00073FD0D4B186001F049FDFEE7C0480008DD
:1007B000E5050008880000209C4800084506000860
:1007C00084000020784800084F06000880000020C0
:1007D00054480008590600087C00002000B583B08A
:1007E000114B9A6942F001029A619A6902F0010282
:1007F0000092009ADA6942F08052DA61DB6903F014
:1008000080530193019B00220F216FF0010000F043
:1008100083F9064A536823F0E06343F000735360A2
:1008200003B05DF804FB00BF00100240000001406F
:1008300010B586B0002302930393049305930268D6
:10084000154B9A4201D006B010BD144CA36943F079
:100850000803A361A36903F008030093009B4FF40E
:1008600040730293122303930323059302A90C48B8
:1008700000F070F90B4A536843F0E06343F0020361
:100880005360E36943F40013E361E36903F4001385
:100890000193019BD7E700BF0054004000100240C5
:1008A000000C01400000014000B587B00023029316
:1008B0000393049305930268114B9A4202D007B048
:1008C0005DF804FB03F5E633DA6942F40032DA61DD
:1008D000DA6902F400320092009A9A6942F0040246
:1008E0009A619B6903F004030193019B0C2302931B
:1008F00002230393059302A9024800F02BF9DEE7D7
:10090000004400400008014030B589B00446214B46
:10091000DA6942F00402DA61DB6903F0040301934F
:10092000019B02A903A801F0CDF9069BCBB901F008
:10093000A9F90346184AA2FB03239B0C013B174865
:10094000174A026040F2E732C2604360002303614D
:100950008360836101F006FB054630B1284609B08B
:1009600030BD01F08FF94300E4E70C4801F0CAF90B
:1009700005460028F2D11E2000F0DEF80F2C01D928
:100980000125EBE7002221461E2000F0C5F8054BAB
:100990001C60E3E70010024083DE1B4328010020B7
:1009A0000008004008000020FEE7FEE7FEE7FEE743
:1009B000FEE7704708B5024801F0DCF908BD00BF4A
:1009C0002801002008B54FF4005000F0D9F908BD07
:1009D000F0B587B006464FF0FF3702970124019427
:1009E0000DF11703009323460022942100F0A2FC8E
:1009F0000546029701940DF1160300932346022247
:100A00009421304600F096FCADB99DF817301B02DA
:100A10001BB29DF8162013431811002B03DA6FEA5E
:100A200000506FEA1050FFF7E9FC4FF07651FFF7E6
:100A300077FB07B0F0BD0148FBE700BF00C079C4F9
:100A40007047000008B5074A136843F010031360AD
:100A5000032000F04FF80F20FFF756FFFFF7BEFE10
:100A6000002008BD00200240034A1168034B1B7898
:100A70000B441360704700BF700100200400002089
:100A8000014B1868704700BF70010020002808DB88
:100A90000901C9B200F1604000F5614080F800131F
:100AA000704700F00F000901C9B2014B195470479B
:100AB00014ED00E000B500F00700C0F1070CBCF138
:100AC000040F28BF4FF0040C031D062B0FD9C31EC3
:100AD0004FF0FF3E0EFA0CF021EA000199400EFAA9
:100AE00003FE22EA0E0241EA02005DF804FB002345
:100AF000EEE70000074AD36823F4E0631B041B0CF5
:100B0000000200F4E060034343F0BF6343F40033AA
:100B1000D360704700ED00E010B50446054BD8687F
:100B2000C0F30220FFF7C6FF01462046FFF7AEFFE5
:100B300010BD00BF00ED00E0002807DB00F01F0241
:100B4000400901239340024A42F82030704700BF19
:100B500000E100E070B582B00024A446A1E07E4D23
:100B6000AB4214D00CD8A5F58015AB420FD005F5DB
:100B70007025AB420BD0A5F58015AB4210D106E035
:100B8000764DAB4203D005F58035AB4208D18B687A
:100B9000002B50D0012B49D04261082400E0CC68E2
:100BA000BEF1FF0F49D806464FEA8C0233680F2585
:100BB000954023EA050304FA02F2134333604B68BD
:100BC00013F0805F6BD0664B9A6942F001029A6124
:100BD0009B6903F001030193019B4FEA9C02951C62
:100BE000604B53F825600CF00305AD000F23AB40BC
:100BF00026EA03065C4B984226D003F580639842B0
:100C000000F08C8003F58063984200F0898003F542
:100C10008063984216D0042317E0CC680434BFE701
:100C2000CC680834BCE7CC680C34B9E7026108240E
:100C3000B6E70024B4E70424B2E7061DACF10802CD
:100C40009200B3E7032300E00023AB4033430232BA
:100C5000444D45F822304B6813F4801F62D0434A5C
:100C6000936843EA0E0393604B6813F4001F5FD050
:100C70003E4AD36843EA0E03D3604B6813F4003F47
:100C80005CD03A4A536843EA0E0353604B6813F44E
:100C9000803F59D0354A136843EA0E0313600CF1C4
:100CA000010C0B6833FA0CF254D0012202FA0CF258
:100CB00003EA020E32EA0303F1D14B68122B3FF62E
:100CC0004EAF122B3FF66CAF01A555F823F000BFD5
:100CD0008F0B00089F0B0008210C0008330C000844
:100CE000A10B0008A10B0008A10B0008A10B000834
:100CF000A10B0008A10B0008A10B0008A10B000824
:100D0000A10B0008A10B0008A10B0008A10B000813
:100D1000A10B00081B0C0008270C0008012394E716
:100D2000022392E7114A936823EA0E0393609BE73C
:100D30000E4AD36823EA0E03D3609EE70B4A53683A
:100D400023EA0E035360A1E7084A136823EA0E035F
:100D50001360A4E702B070BD000022100000311043
:100D60000010024000000140000801400004014062
:100D70000AB10161704709040161704770470000C2
:100D800008B5054B5B69034200D108BD024B5861B1
:100D9000FFF7F4FFF9E700BF0004014003685A6958
:100DA00012F4806F01D1002070476FF480625A61A5
:100DB00000230363202280F83D2080F83E30026C3F
:100DC00042F00402026480F83C30012070472DE9B3
:100DD000F04106460C46174698463BE0FFF750FEAA
:100DE000069BC01A404502D8B8F1000F32D1012D40
:100DF00018D033689B6924EA03039BB2B3FA83F3E8
:100E00005B099F4226D100233363202286F83D20D0
:100E100086F83E30326C42F02002326486F83C3074
:100E2000012027E033685B6924EA03039BB2B3FA2D
:100E300083F35B09E5E733685B6924EA030C1FFA77
:100E40008CFCBCFA8CFC4FEA5C1C674511D1B8F1F4
:100E5000FF3FC3D1C4F30745012DECD033689B6934
:100E600024EA030C1FFA8CFCBCFA8CFC4FEA5C1CD5
:100E7000EBE70020BDE8F0812DE9F84305460E467A
:100E80009046994653E01A6842F400721A602B6843
:100E90006FF480625A6100232B63202285F83D2085
:100EA00085F83E302A6C42F004022A6485F83C3012
:100EB00001204AE0FFF7E4FDA0EB0900404502D81D
:100EC000B8F1000F33D1012F17D02B689B6926EAA8
:100ED00003039BB2003B18BF012343B300232B63E2
:100EE000202285F83D2085F83E302A6C42F0200211
:100EF0002A6485F83C30012027E02B685B6926EAEC
:100F000003039BB2003B18BF0123E6E72B689C69F3
:100F100026EA0404A4B2003C18BF0124A4B12B6843
:100F20005A6912F4806FAED1B8F1FF3FC2D1C6F357
:100F30000747012FEAD12B685C6926EA0404A4B2B2
:100F4000003C18BF0124E9E70020BDE8F88370B534
:100F500004460D46164623685B6913F0800F21D1C5
:100F60002046FFF71BFFF8B9B5F1FF3FF3D0FFF7BD
:100F700087FD801BA84201D8002DECD123685B6956
:100F800013F0800FE7D100232363202284F83D2053
:100F900084F83E30226C42F02002226484F83C3017
:100FA000012000E0002070BD0120FCE72DE9F047A2
:100FB00084B004460D46164699460C9FDDF83480F1
:100FC0000268136843F4806313600368196841F48E
:100FD00080711960CDF800803B4600224FF001116E
:100FE000FFF7F5FE70B95FFA85FA236805F0FE0594
:100FF0001D6143463A4641492046FFF73DFF68B12F
:10100000012008E023681B6813F4807F02D04FF4AE
:1010100000732364032004B0BDE8F087002303932A
:1010200023685A6903929B690393039B424639469E
:101030002046FFF78CFF80B9B9F1010F18D1236862
:10104000F6B21E61424639462046FFF780FF68B37C
:10105000236C042B24D00120DDE7236C042B01D06A
:101060000120D8E72268136843F400731360F7E7A0
:101070002368320A1A61424639462046FFF767FF65
:1010800018B92368F6B21E61DCE7236C042B01D08B
:101090000120C0E72268136843F400731360F7E788
:1010A0002268136843F400731360D4E7226813685E
:1010B00043F480731360CDF800803B4600224FF06C
:1010C00001112046FFF783FE68B922684AF0010348
:1010D000136143463A4609492046FFF7CDFE0028F2
:1010E00099D0012097E723681B6813F4807F02D012
:1010F0004FF40073236403208DE700BF020001005A
:1011000070B504460D46164614E06FF010025A61A1
:1011100000232363202284F83D2084F83E30226C93
:10112000226484F83C30012025E023685B6913F0D9
:10113000400F10D02368586910F0400F1AD1586939
:1011400010F0100FE1D1FFF79BFC801BA842ECD8F8
:10115000002DEFD1E9E700232363202284F83D200E
:1011600084F83E30226C42F02002226484F83C3045
:10117000012000E0002070BD002800F0CC8070B598
:10118000044690F83D30002B77D0242384F83D307E
:101190002268136823F0010313602268136843F484
:1011A000004313602268136823F40043136000F0C7
:1011B00069FD62685A4B9A4264D85A4B98428CBF78
:1011C00000230123002B40F0A8805749A1FB0031E8
:1011D0008B0C25686A6822F03F0242EA91426A60FD
:1011E00021680A6A22F03F0266684D4DAE424FD830
:1011F000013313430B622168CA6922F44F4222F083
:10120000FF026568464B9D424CD8431E6D00B3FB00
:10121000F5F3013340F6FC70034278D0C3F30B03BF
:101220001A43CA6121680B6823F0C003E269206A8F
:10123000024313430B6021688B6823F4034323F0BC
:10124000FF032269E068024313438B602168CB6887
:1012500023F0FF036269A06902431343CB60226855
:10126000136843F00103136000202064202384F8F6
:101270003D30206384F83E0070BD80F83C30FFF7BD
:10128000D7FA82E7294B98428CBF0023012399E7C4
:101290004FF4967505FB03F3254DA5FB03539B09FE
:1012A0000133A6E7A668BEB9431E05EB450CB3FBA8
:1012B000FCF30133C3F30B03B3FA83F35B0943BBC2
:1012C000C6B9431E05EB4505B3FBF5F30133C3F384
:1012D0000B0343F40043A3E7431E05EB850C0CEB23
:1012E0008C0CB3FBFCF30133C3F30B03B3FA83F3AE
:1012F0005B09E4E7431E05EB850505EB8505B3FBBC
:10130000F5F30133C3F30B0343F4404388E70423AD
:1013100086E7012384E7012070470120ACE700BF86
:10132000A08601007F841E0083DE1B43FF083D0072
:10133000D34D62102DE9F04389B004460F46904624
:101340009946129E00230793FFF79AFB054694F8EF
:101350003D00C0B2202804D00227384609B0BDE8BD
:10136000F08300951923012281492046FFF72FFDC4
:10137000002840F0728194F83C30012B00F06F811E
:10138000012384F83C3023681A6812F0010F03D15E
:101390001A6842F001021A602268136823F400639D
:1013A0001360222384F83D30402384F83E3000232C
:1013B0002364109B6362BDF844306385638D23858D
:1013C0006C4BE362019500964B46424639462046F7
:1013D000FFF7ECFD0746002840F04381238D5BB901
:1013E000039323685A6903929A690392039A1A68CD
:1013F00042F400721A60EDE0012B0FD0022B21D0D5
:101400002268136843F48063136000230693236803
:101410005A6906929B690693069BDBE02268136873
:1014200023F48063136072B60023049323685A691F
:1014300004929A690492049A1A6842F400721A603B
:1014400062B6C7E02268136843F40063136072B6A3
:101450000023059323685A6905929A690592059AB3
:101460001A6822F480621A6062B6B3E02A463146F6
:101470002046FFF745FE002840F0F58023681A69F2
:10148000636A1A70636A01336362238D013B2385AB
:10149000638D9BB2013B9BB263859BE00095334615
:1014A000002235492046FFF792FC002840F0DF80FB
:1014B0002268136823F48063136072B623681A6984
:1014C000636A1A70636A01336362238D013B23856B
:1014D000638D9BB2013B9BB26385284B1B68DB0885
:1014E000274AA2FB03231B0A03EB8303C3EBC303BB
:1014F0000793079B013B0793079B002B28D023688A
:101500005A6912F0040FF4D01A6842F400721A609B
:1015100023681A69636A1A70636A01336362238DF0
:10152000013B2385638D9BB2013B9BB2638562B611
:1015300023681A69636A1A70636A01336362238DD0
:10154000013B2385638D9BB2013B9BB2638541E0E8
:101550002363202284F83D2084F83E30226C42F040
:101560002002226462B684F83C300127F5E600BF11
:10157000020010000000FFFF040001000000002036
:1015800089B5F8142A4631462046FFF7B9FD0028F0
:101590006FD123681A69636A1A70626A531C6362A6
:1015A000238D013B2385638D9BB2013B9BB26385F9
:1015B0002368596911F0040F0CD01B695370636ADA
:1015C00001336362238D013B2385638D9BB2013B15
:1015D0009BB26385238D002B36D0032BD2D8012BF1
:1015E0003FF444AF022B7FF459AF009533460022FD
:1015F00021492046FFF7EBFB002836D172B622685E
:10160000136843F40073136023681A69636A1A70DD
:10161000636A01336362238D013B2385638D9BB233
:10162000013B9BB2638562B623681A69636A1A70CC
:10163000636A01336362238D013B2385638D9BB213
:10164000013B9BB26385C5E7202384F83D3000232E
:1016500084F83E3084F83C307FE602277DE602279E
:101660007BE6012779E6012777E6012775E6012762
:1016700073E6012771E600BF0400010082B0084B49
:101680001B68084AA2FB03235B0A00FB03F30193D8
:1016900000BF019B5A1E0192002BF9D102B0704786
:1016A00000000020D34D6210002800F0F18170B5D9
:1016B00082B00446036813F0010F2CD0994B5B688D
:1016C00003F00C03042B1DD0964B5B6803F00C0356
:1016D000082B12D06368B3F5803F41D0002B55D161
:1016E00003F1804303F504331A6822F480321A6050
:1016F0001A6822F480221A6037E08A4B5B6813F480
:10170000803FE7D0874B1B6813F4003F03D063682A
:10171000002B00F0BF81236813F0020F75D0814BBE
:101720005B6813F00C0F5FD07E4B5B6803F00C031B
:10173000082B54D02369002B00F08A807A4B0122B9
:101740001A60FFF79DF90546764B1B6813F0020FF0
:1017500075D1FFF795F9401B0228F5D903209EE1CA
:10176000704A136843F480331360636843B3FFF730
:1017700087F905466B4B1B6813F4003FCBD1FFF78D
:101780007FF9401B6428F5D9032088E1B3F5A02F29
:1017900009D0644B1A6822F480321A601A6822F465
:1017A00080221A60E1E703F18043A3F53C331A6815
:1017B00042F480221A601A6842F480321A60D4E738
:1017C000FFF75EF90546574B1B6813F4003FA2D0A4
:1017D000FFF756F9401B6428F5D903205FE1514B10
:1017E0005B6813F4803FA5D14E4B1B6813F0020FCA
:1017F00003D02369012B40F04F814A4A136823F03C
:10180000F803616943EAC1031360236813F0080F0A
:1018100033D0A369002B5CD0434B0122C3F8802452
:10182000FFF72EF905463F4B5B6A13F0020F21D1FB
:10183000FFF726F9401B0228F5D903202FE1394A8A
:10184000136823F0F803616943EAC1031360DCE71E
:10185000354B00221A60FFF713F90546314B1B6820
:1018600013F0020FD1D0FFF70BF9401B0228F5D976
:10187000032014E10120FFF701FF236813F0040F98
:1018800000F09680274BDB6913F0805F34D1254B45
:10189000DA6942F08052DA61DB6903F08053019328
:1018A000019B0125214B1B6813F4807F26D0E36840
:1018B000012B3DD0002B53D103F1804303F50433BA
:1018C0001A6A22F001021A621A6A22F004021A62EB
:1018D00033E0154B0022C3F88024FFF7D1F805460A
:1018E000104B5B6A13F0020FC7D0FFF7C9F8401B1B
:1018F0000228F5D90320D2E00025D3E70B4A13686C
:1019000043F480731360FFF7BBF80646074B1B6870
:1019100013F4807FCBD1FFF7B3F8801B6428F5D98F
:101920000320BCE000100240000042420070004072
:101930005F4A136A43F001031362E36833B3FFF7AE
:101940009FF806465A4B1B6A13F0020F2FD1FFF780
:1019500097F8801B41F288339842F3D903209EE028
:10196000052B09D0524B1A6A22F001021A621A6A38
:1019700022F004021A62E0E74D4B1A6A42F00402B8
:101980001A621A6A42F001021A62D6E7FFF778F883
:101990000646474B1B6A13F0020F08D0FFF770F89A
:1019A000801B41F288339842F3D9032077E0E5B9F0
:1019B000E369002B72D03E4A526802F00C02082AFA
:1019C00056D0022B17D03B4B00221A66FFF758F86F
:1019D0000446374B1B6813F0007F47D0FFF750F8E1
:1019E000001B0228F5D9032059E0314AD36923F0BE
:1019F0008053D361DCE72F4B00221A66FFF740F8D3
:101A000005462B4B1B6813F0007F06D0FFF738F814
:101A1000401B0228F5D9032041E0236AB3F5803F3B
:101A20001AD023494B6823F47413226A606A024374
:101A300013434B601F4B01221A66FFF721F804463F
:101A40001B4B1B6813F0007F0ED1FFF719F8001B2A
:101A50000228F5D9032022E0154A536823F4003305
:101A6000A1680B435360DCE7002018E0002016E07B
:101A7000012B16D00E4B5B6803F48031226A914231
:101A800011D103F47013626A93420ED1002006E074
:101A900001207047012002E0012000E0002002B098
:101AA00070BD0120FBE70120F9E70120F7E700BF47
:101AB00000100240000042420F4B5B6803F00C0232
:101AC000082A01D00D487047C3F383420C49885C53
:101AD00013F4803F0BD0084B5B68C3F34043094AC3
:101AE000D35C064A02FB00F0B0FBF3F07047064BF4
:101AF00003FB00F0704700BF0010024000127A00A4
:101B000000490008FC48000800093D00002800F0DA
:101B1000A08070B50D460446524B1B6803F00703C6
:101B20008B420BD24F4A136823F007030B43136019
:101B3000136803F007038B4240F08D80236813F095
:101B4000020F17D013F0040F04D0474A536843F430
:101B5000E0635360236813F0080F04D0424A5368CF
:101B600043F460535360404A536823F0F003A16884
:101B70000B435360236813F0010F31D06368012BCE
:101B800020D0022B25D0384A126812F0020F64D000
:101B900035494A6822F0030213434B60FEF770FF99
:101BA0000646314B5B6803F00C036268B3EB820FAF
:101BB00016D0FEF765FF801B41F288339842F0D9BA
:101BC000032045E0284A126812F4003FE0D10120CA
:101BD0003EE0254A126812F0007FD9D1012037E09B
:101BE000204B1B6803F00703AB420AD91D4A136858
:101BF00023F007032B431360136803F00703AB4282
:101C00002DD1236813F0040F06D0174A536823F42C
:101C1000E063E1680B435360236813F0080F07D0BB
:101C2000114A536823F46053216943EAC1035360A6
:101C3000FFF742FF0C4B5B68C3F303130B4AD35C03
:101C4000D8400B4B18600B4B1868FEF75DFE002068
:101C500070BD012070470120FAE70120F8E701205C
:101C6000F6E700BF0020024000100240EC480008E8
:101C70000000002008000020014B1868704700BFDA
:101C80000000002008B5FFF7F7FF044B5B68C3F3C3
:101C90000223034AD35CD84008BD00BF00100240B5
:101CA000E448000808B5FFF7E7FF044B5B68C3F39F
:101CB000C223034AD35CD84008BD00BF00100240D5
:101CC000E44800080F2303600B4B5A6802F003023C
:101CD00042605A6802F0F00282605A6802F4E062E0
:101CE000C2605B68DB0803F4E0630361034B1B68BD
:101CF00003F007030B607047001002400020024011
:101D00007047000090F83D30DBB2012B27D1022351
:101D100080F83D300268D36843F00103D360036864
:101D2000114A934210D0B3F1804F0DD0A2F59432F6
:101D3000934209D002F58062934205D01A6842F0BE
:101D400001021A60002070479A6802F00702062A12
:101D500007D01A6842F001021A6000207047012083
:101D600070470020704700BF002C0140704770474B
:101D70007047704710B5044603681A6912F0020FE5
:101D800011D0DA6812F0020F0DD06FF002021A6162
:101D90000123037703689B6913F0030F70D0FFF7EB
:101DA000E6FF0023237723681A6912F0040F12D08C
:101DB000DA6812F0040F0ED06FF004021A610223E9
:101DC000237723689B6913F4407F5FD02046FFF799
:101DD000CEFF0023237723681A6912F0080F12D070
:101DE000DA6812F0080F0ED06FF008021A610423AF
:101DF00023772368DB6913F0030F4ED02046FFF7EB
:101E0000B6FF0023237723681A6912F0100F12D04F
:101E1000DA6812F0100F0ED06FF010021A6108236A
:101E200023772368DB6913F4407F3DD02046FFF71A
:101E30009EFF0023237723681A6912F0010F03D055
:101E4000DA6812F0010F36D123681A6912F0800F98
:101E500003D0DA6812F0800F34D123681A6912F0C7
:101E6000400F03D0DA6812F0400F32D123681A69AC
:101E700012F0200F03D0DA6812F0200F30D110BD1D
:101E8000FFF774FF2046FFF773FF8AE72046FFF74E
:101E90006DFF2046FFF76CFF9BE72046FFF766FFCC
:101EA0002046FFF765FFACE72046FFF75FFF2046BF
:101EB000FFF75EFFBDE76FF001021A612046FEF7F3
:101EC000D1FBC1E76FF080021A61204600F077F87D
:101ED000C3E76FF040021A612046FFF74AFFC5E7EB
:101EE0006FF020021A61204600F068F8C7E7000092
:101EF00003681B4A90420AD0B0F1804F07D0A2F588
:101F00009432904203D002F58062904203D123F0D4
:101F100070034A681343124A90420AD0B0F1804FCE
:101F200007D0A2F59432904203D002F5806290422D
:101F300003D123F44073CA68134323F080034A6932
:101F4000134303608B68C3620B688362044B98423F
:101F500002D00123436170470B690363F9E700BFB7
:101F6000002C014040B310B5044690F83D30F3B169
:101F7000022384F83D30214651F8040BFFF7B8FFE7
:101F8000012384F8463084F83E3084F83F3084F8EA
:101F9000403084F8413084F8423084F8433084F88B
:101FA000443084F8453084F83D30002010BD80F87E
:101FB0003C30FFF7A5FEDBE7012070477047704714
:101FC00010B504460268136923F44053C1680B43FB
:101FD000136183680269134342691A430168CB683D
:101FE00023F4B05323F00C031343CB60026853690E
:101FF00023F4407381690B4353610268134B9A4287
:1020000020D0FFF73FFE024602EB820202EB820283
:1020100063689B00B2FBF3F20D48A0FB0231490953
:10202000642303FB11231B013233A0FB03035B0971
:1020300003F0F00202EB011203F00F0321681344D6
:102040008B6010BDFFF72EFE0246DDE70038014031
:102050001F85EB512DE9F84305460F461646994674
:10206000DDF820802B681C6837EA04040CBF0124CB
:102070000024B4422DD1B8F1FF3FF3D0B8F1000FE6
:1020800005D0FEF7FDFCA0EB09004045EAD92A681F
:1020900002F10C0353E8003F23F4D0730C3242E802
:1020A00000310029F3D12A6802F1140353E8003FFC
:1020B00023F00103143242E800310029F3D1202338
:1020C00085F8413085F84230002385F84030032000
:1020D00000E00020BDE8F88360B310B5044690F836
:1020E000413013B3242384F841302268D36823F4A9
:1020F0000053D3602046FFF763FF2268136923F47F
:10210000904313612268536923F02A0353612268C4
:10211000D36843F40053D36000206064202384F824
:10212000413084F84230606310BD80F84030FEF7E3
:10213000BBFBD7E7012070472DE9F04182B01E4676
:1021400090F84130DBB2202B4BD104460D4690462F
:1021500000294AD00AB9012044E000234364212326
:1021600080F84130FEF78CFC0746A4F82480A4F8E0
:102170002680A368B3F5805F02D04FF000080FE01F
:102180002369FBB14FF000080AE038F8023B2268EF
:10219000C3F308035360E28C92B2013A92B2E28434
:1021A000E38C9BB28BB100963B46002280212046F7
:1021B000FFF750FFD8B9002DE7D015F8012B2368A1
:1021C0005A60E8E7A8460025EAE700963B46002269
:1021D00040212046FFF73EFF58B9202384F84130C4
:1021E00000E0022002B0BDE8F0810120FAE7032000
:1021F000F8E70320F6E70000EFF3058393B9EFF368
:10220000108393B90C4B1868022804D080B90A4B8C
:1022100001221A607047EFF31183002BF6D06FF0A4
:10222000050070476FF0050070476FF005007047BC
:102230004FF0FF30704700BF2C08002008B5EFF3C7
:102240000583B3B9EFF31083B3B90E4B1B68022BB0
:1022500008D0012B13D10B4B02221A6001F0D0F8E9
:10226000002008BDEFF31182002AF2D06FF00500C4
:10227000F7E76FF00500F4E76FF00500F1E74FF0C6
:10228000FF30EEE72C080020F0B587B0002404945E
:10229000EFF30584002C43D1EFF31083002B3FD1E3
:1022A000334B1B68022B16D0002839D000238DF841
:1022B000173062B3156895B1936903B918235C1E92
:1022C000372C51D8546814F0010F4FD156694EB1D4
:1022D0004FEA960C08E0EFF311830BBBE4E70DF136
:1022E0001705E9E74FF0800C94682CB1D7685B2F95
:1022F00002D9176907B1B6B914B14FF0FF340CE039
:10230000D46894B914699CB14FF0FF3405E00024FF
:1023100018234FF0800C0DF11705012C0AD0ACB139
:10232000049807B0F0BD0124F7E74FF0FF34F4E75D
:102330000024F2E7146992680292019400930B461C
:102340006246294600F0F0FF0490E9E704AA0192F2
:1023500000930B461FFA8CF2294601F01FF8012862
:10236000DED000230493DBE70020DAE70020D8E783
:102370002C08002008B5EFF30583A3B9EFF3108311
:10238000A3B90C4B1B68022B02D040B9002008BD3A
:10239000EFF31183002BF8D06FF00500F7E701F0A1
:1023A00091F90020F3E76FF00500F0E76FF005000A
:1023B000EDE700BF2C080020034B0360034B0B60CC
:1023C00080231360704700BFD0070020D005002095
:1023D000034B0360034B0B604FF480731360704733
:1023E000740500207401002000F1080343604FF0E1
:1023F000FF328260C36003610023036070470023E3
:102400000361704743684B609A688A6051609960C5
:102410000861036801330360704730B40D68B5F19B
:10242000FF3F11D000F108031C465B681A68AA42FE
:10243000FAD963684B6099608C60616008610368D9
:102440000133036030BC70470469F2E703694168F7
:1024500082688A60416851605A68824206D00022D0
:1024600002611A68013A1A601868704782685A60F7
:10247000F5E7000082B0002301930D4B1B68B3F118
:10248000FF3F08D04FF0500383F31188BFF36F8FE5
:10249000BFF34F8FFEE74FF0500383F31188BFF374
:1024A0006F8FBFF34F8F019B002BFCD002B07047A2
:1024B0000C00002006480068006880F3088862B6B7
:1024C00061B6BFF34F8FBFF36F8F00DF00BF000017
:1024D00008ED00E04FF0807340F8043C21F001016A
:1024E00040F8081C034B40F80C3C40F8202C4038C6
:1024F000704700BF752400080000000000000000C5
:10250000074B19680868B0E8F00F80F30988BFF33B
:102510006F8F4FF0000080F311884EF00D0E704762
:102520008C1900204FF0500383F31188BFF36F8F95
:10253000BFF34F8F0B4A136801331360012B00D098
:1025400070474FF0E023D3F8043D13F0FF0FF7D0AE
:102550004FF0500383F31188BFF36F8FBFF34F8F9A
:10256000FEE700BF0C000020094B1B6843B94FF089
:10257000500383F31188BFF36F8FBFF34F8FFEE7D4
:10258000013B034A13600BB983F31188704700BF06
:102590000C0000200000000000000000000000000F
:1025A000EFF30980BFF36F8F0D4B1A6820E9F00F2E
:1025B00010602DE908404FF0500080F3118801F0C1
:1025C000A7F84FF0000080F31188BDE808401968B3
:1025D0000868B0E8F00F80F30988BFF36F8F704789
:1025E0008C19002008B54FF0500383F31188BFF316
:1025F0006F8FBFF34F8F00F05DFF28B14FF0E023E6
:102600004FF08052C3F8042D002383F3118808BDD6
:102610004FF0E022002313619361054B1B680549CD
:10262000A1FB03139B09013B53610723136170470F
:1026300000000020D34D621010B582B02A4B1A78EA
:10264000D2B20192FF221A701B78DBB28DF80330F0
:102650009DF8033003F05003244A1370244B0722E3
:102660001A6009E0224A1368013B13609DF80330A9
:102670005B00DBB28DF803309DF8033013F0800F60
:10268000F0D11B4B1B68032B08D04FF0500383F392
:102690001188BFF36F8FBFF34F8FFEE71B02144A01
:1026A000136003F4E0631360019BDBB20E4A137006
:1026B0004FF0E023D3F8202D42F47002C3F8202D10
:1026C000D3F8202D42F07042C3F8202DFFF7A0FF71
:1026D0000024084B1C60FFF7EDFE01F019F8FFF72E
:1026E000C9FE204602B010BD00E400E0340800201E
:1026F000300800200C000020EFF305830F2B0FD9CA
:10270000114A9B5CDBB2114A12789A4208D94FF009
:10271000500383F31188BFF36F8FBFF34F8FFEE732
:102720004FF0E023D3F80C3D03F4E063084A12684D
:10273000934208D94FF0500383F31188BFF36F8F92
:10274000BFF34F8FFEE77047F0E300E0340800204E
:1027500030080020124A12F0070F1ED0D11D21F0C0
:102760000701C1F5406313440A460E480260002188
:1027700041601344083B23F007030B480360596092
:102780001960991A51601360084B1960084B196061
:10279000084B4FF000421A6070474FF44063E4E783
:1027A0005008002048080020440800203C08002071
:1027B0004008002038080020154B1A461B68834249
:1027C000FBD3516802EB010C844509D0416800EB52
:1027D000010C634509D00360904218D01060704727
:1027E0004068014451601046F0E710B4094C246879
:1027F000A3420AD05B681944416013681B680360F8
:10280000904200D0106010BC70470460F8E7704739
:10281000480800204408002038B5044600F03CFE7B
:10282000364B1B68B3B1364B1B681C424CD1002C95
:102830004CD004F1080214F0070F02D022F0070276
:102840000832002A51D02F4B1B6893424FD32E4998
:102850000C6804E0FFF77EFFE5E721461C4663684D
:10286000934202D22368002BF7D1244B1B68A3426A
:102870003FD00D68083523680B6063689B1A102BE6
:1028800010D9A01810F0070F08D04FF0500383F3B1
:102890001188BFF36F8FBFF34F8FFEE74360626015
:1028A000FFF78AFF626817490B689B1A0B6017498C
:1028B00009688B4201D215490B60114B1B68134309
:1028C00063600023236002E0002500E0002500F0A3
:1028D0007DFE15F0070F0ED04FF0500383F31188E3
:1028E000BFF36F8FBFF34F8FFEE70025EFE70025A3
:1028F000EDE70025EBE7284638BD00BF440800207F
:102900003808002040080020480800203C0800202B
:1029100080B338B50446A0F1080550F8043C164AC7
:102920001268134208D14FF0500383F31188BFF3AC
:102930006F8FBFF34F8FFEE750F8081C41B14FF087
:10294000500383F31188BFF36F8FBFF34F8FFEE700
:1029500023EA020340F8043C00F09EFD54F8041CF6
:10296000064A13680B4413602846FFF725FF00F062
:102970002DFE38BD704700BF3808002040080020F9
:1029800010B50446FFF7CEFDA26BE36B9A4204D06C
:102990000024FFF7E9FD204610BD0124F9E710B53A
:1029A0000446FFF7BFFDA36B23B90124FFF7DCFD4D
:1029B000204610BD0024F9E770B504461546866B25
:1029C000026C5AB903681BB100200136A66370BDC2
:1029D000406800F0C7FF00236360F6E76DB98068C8
:1029E00001F092FAA368226C1344A36062689342D8
:1029F00019D32368A3602846E7E7C06801F084FA8A
:102A0000E368226C51429B1AE3602268934202D22F
:102A100063680B44E360022D01D00020D5E726B1A6
:102A2000013E0020D1E72846CFE70020CDE708B5DA
:102A30000346026C62B10846D9681144D960D3F8E4
:102A400004C0614501D31968D960D96801F05CFA06
:102A500008BD38B50546FFF765FD95F8454064B2F9
:102A600001E0013C64B2002C0ADD6B6A43B105F160
:102A7000240000F0CDFE0028F3D000F05DFFF0E769
:102A8000FF2385F84530FFF76FFDFFF74BFD95F805
:102A9000444064B201E0013C64B2002C0ADD2B69C1
:102AA00043B105F1100000F0B3FE0028F3D000F0B0
:102AB00043FFF0E7FF2385F84430FFF755FD38BDAD
:102AC00038B5E0B10D460446FFF72CFD2368E26BF4
:102AD000216C01FB023060600020A063A360013A1A
:102AE00002FB0133E360FF2384F8443084F845306F
:102AF000FDB9236963B9FFF737FD012038BD4FF0F9
:102B0000500383F31188BFF36F8FBFF34F8FFEE73E
:102B100004F1100000F07CFE0028ECD04FF0E02320
:102B20004FF08052C3F8042DBFF34F8FBFF36F8F68
:102B3000E1E704F11000FFF757FC04F12400FFF770
:102B400053FCD8E738B51D46049C0B4649B92460B0
:102B5000E063236401212046FFF7B2FF84F84C5064
:102B600038BD2260F4E740B94FF0500383F3118879
:102B7000BFF36F8FBFF34F8FFEE710B584B01C46D5
:102B8000844653B192B189B94FF0500383F3118851
:102B9000BFF36F8FBFF34F8FFEE74FF0500383F308
:102BA0001188BFF36F8FBFF34F8FFEE76AB15023D9
:102BB0000393039B502B13D04FF0500383F31188E2
:102BC000BFF36F8FBFF34F8FFEE70029EFD04FF0B9
:102BD000500383F31188BFF36F8FBFF34F8FFEE76E
:102BE000012384F8463000949DF818306046FFF7C2
:102BF000A9FF204604B010BDF0B585B0019288B1A0
:102C00000F461D460446B1B1022D20D1E36B012BC6
:102C10001DD04FF0500383F31188BFF36F8FBFF3C4
:102C20004F8FFEE74FF0500383F31188BFF36F8F90
:102C3000BFF34F8FFEE7036C002BE5D04FF050033E
:102C400083F31188BFF36F8FBFF34F8FFEE700F060
:102C500079FE064658B9019B002B48D04FF050032F
:102C600083F31188BFF36F8FBFF34F8FFEE700260A
:102C70003DE02A4639462046FFF79EFE636A7BB94F
:102C800048B14FF0E0234FF08052C3F8042DBFF35A
:102C90004F8FBFF36F8FFFF767FC012005B0F0BDCA
:102CA00004F1240000F0B4FD0028F4D04FF0E0233C
:102CB0004FF08052C3F8042DBFF34F8FBFF36F8FD7
:102CC000E9E7FFF751FC0020E8E702A800F0E6FD85
:102CD000012619E0002384F8443021E0002384F821
:102CE000453023E02046FFF7B4FE00F06FFCFFF70D
:102CF00019FCA26BE36B9A42BBD3022DB9D0019BA6
:102D0000002BDED0002EE0D0FFF72EFC00F0C4FB3D
:102D1000FFF708FC94F8442052B2B2F1FF3FD9D03B
:102D200094F8452052B2B2F1FF3FD7D0FFF71CFC18
:102D300001A902A800F0BEFDD8B92046FFF720FE89
:102D40000028CFD0019904F1100000F02DFD20469D
:102D5000FFF77FFE00F03AFC0028C8D14FF0E023D7
:102D60004FF08052C3F8042DBFF34F8FBFF36F8F26
:102D7000BDE72046FFF76DFE00F028FC00208DE740
:102D80002DE9F84390B10F4616461C460546B1B1F1
:102D9000022C20D1EB6B012B1DD04FF0500383F39D
:102DA0001188BFF36F8FBFF34F8FFEE74FF05003D3
:102DB00083F31188BFF36F8FBFF34F8FFEE7036C70
:102DC000002BE5D04FF0500383F31188BFF36F8FD2
:102DD000BFF34F8FFEE7FFF78FFCEFF311884FF043
:102DE000500383F31188BFF36F8FBFF34F8FAA6B2C
:102DF000EB6B9A4206D3022C04D0002088F3118892
:102E0000BDE8F88395F845904FFA89F9224639468E
:102E10002846FFF7D1FDB9F1FF3F06D009F10103C4
:102E20005BB285F845300120E8E76B6A0BB90120F9
:102E3000E4E705F1240000F0EBFC18B126B1012015
:102E40003060DBE70120D9E70120D7E7F0B585B096
:102E5000019290B10F460446C1B100F073FD0646E1
:102E600000BB019B002B5ED04FF0500383F3118811
:102E7000BFF36F8FBFF34F8FFEE74FF0500383F325
:102E80001188BFF36F8FBFF34F8FFEE7036C002BEA
:102E9000E3D04FF0500383F31188BFF36F8FBFF37C
:102EA0004F8FFEE700263EE039462046FFF7BFFD84
:102EB000013DA563236923B9FFF756FB012005B047
:102EC000F0BD04F1100000F0A3FC0028F4D04FF096
:102ED000E0234FF08052C3F8042DBFF34F8FBFF3B0
:102EE0006F8FE9E7FFF740FB0020E8E702A800F05A
:102EF000D5FC012621E0002384F8443029E000239A
:102F000084F845302BE02046FFF7A3FD00F05EFB80
:102F100009E02046FFF79DFD00F058FB2046FFF733
:102F20003EFD00283FD1FFF7FDFAA56B002DBBD178
:102F3000019B002BD6D0002ED8D0FFF715FB00F058
:102F4000ABFAFFF7EFFA94F844305BB2B3F1FF3F0E
:102F5000D1D094F845305BB2B3F1FF3FCFD0FFF74B
:102F600003FB01A902A800F0A5FC0028D1D120464E
:102F7000FFF715FD0028C6D0019904F1240000F0E8
:102F800013FC2046FFF765FD00F020FB0028CAD1A6
:102F90004FF0E0234FF08052C3F8042DBFF34F8F62
:102FA000BFF36F8FBFE7002089E700000023072BE6
:102FB0000CD8074A52F833200AB10133F7E7044A24
:102FC00042F8331002EBC30250607047704700BFF5
:102FD0005014002070B504460D461646FFF7A2FABD
:102FE00094F844305BB2B3F1FF3F0DD094F8453014
:102FF0005BB2B3F1FF3F0BD0FFF7B6FAA36B5BB147
:103000002046FFF726FD70BD002384F84430EDE72D
:10301000002384F84530EFE73246294604F12400C6
:1030200000F0DAFBECE70000084B1B681B6823B9D3
:10303000074B4FF0FF321A607047044B1B68DB6888
:10304000DB685A68024B1A60704700BF0015002009
:10305000981400202DE9F04780460D461746994602
:10306000089EDDF824A00A9C9200A521206B00F0A8
:103070001DFF236B07F18042013A03EB820727F023
:1030800007074FF0000CBCF10F0F09D815F80C30F2
:1030900004EB0C0282F8343013B10CF1010CF2E7AE
:1030A000002384F84330372E00D93726E662E664E1
:1030B00000252565201DFFF7A2F904F11800FFF790
:1030C0009EF92461C6F13806A6616462656584F8DC
:1030D00058504A4641463846FFF7FCF92060BAF19D
:1030E000000F01D0CAF80040BDE8F08738B50024D1
:1030F00007E004EB840293000E481844FFF774F9CC
:103100000134372CF5D90C4D2846FFF76DF90B4CDF
:103110002046FFF769F90A48FFF766F90948FFF703
:1031200063F90948FFF760F9084B1D60084B1C6004
:1031300038BD00BF2C1500201815002004150020F4
:10314000E8140020D4140020BC1400200015002036
:10315000FC14002010B50446FFF7E4F9224A136876
:1031600001331360214B1B685BB1214B1B686BB9AA
:103170001E4B1B68DA6AE36A9A4207D81B4B1C6035
:1031800004E01A4B1C601368012B29D0194A1368FC
:10319000013313606364E06A174B1B68984201D9DE
:1031A000154B186000EB8000211D144B03EB8000D1
:1031B000FFF728F9FFF7D8F90D4B1B687BB10B4BD4
:1031C0001B68DA6AE36A9A4209D24FF0E0234FF0B3
:1031D0008052C3F8042DBFF34F8FBFF36F8F10BD24
:1031E000FFF784FFD2E700BFB81400208C1900203D
:1031F000AC1400209C140020B01400202C150020DA
:1032000010B5044690F8593063B1012B11D0022B50
:103210000ED04FF0500383F31188BFF36F8FBFF3CD
:103220004F8FFEE7006BFFF773FB2046FFF770FB45
:1032300010BDFFF76DFBFBE70F4B1B68D3B110B55B
:10324000FFF770F90D4BDB68DC68201DFFF7FEF817
:103250000B4A1368013B1360074A1368013B136074
:10326000FFF782F92046FFF7CBFF034B1B68002BCB
:10327000E6D110BD704700BFD0140020D414002048
:10328000B814002008B5FFF7D7FF074B1B68012BC8
:10329000F9D94FF0E0234FF08052C3F8042DBFF36B
:1032A0004F8FBFF36F8FEEE72C15002070B50446EB
:1032B0000D46174B1E68174B18680430FFF7C6F809
:1032C000B4F1FF3F0DD03444124B1B685C60A64242
:1032D00010D9114B18680F4B19680431FFF79DF88E
:1032E00070BD002DEFD00B4B196804310B48FFF770
:1032F00089F8F5E70A4B1868064B19680431FFF79F
:103300008CF8084B1B68A342EAD9064B1C60E7E720
:10331000B41400208C190020FC140020BC140020E0
:10332000001500209814002030B587B00B9C7CB1AC
:103330000C9DB5B15C250495049D5C2D1AD04FF011
:10334000500383F31188BFF36F8FBFF34F8FFEE7F6
:103350004FF0500383F31188BFF36F8FBFF34F8F8C
:10336000FEE74FF0500383F31188BFF36F8FBFF375
:103370004F8FFEE70C9D2C63022485F859400024F2
:103380000394029505AC01940A9C0094FFF762FE39
:103390000C98FFF7DFFE059807B030BD2DE9F0432C
:1033A00085B00746884614461E469000FFF734FA5B
:1033B00008B381465C20FFF72FFA0546A8B1C0F894
:1033C0003090002380F85930039302900D9B0193B5
:1033D0000C9B00933346224641463846FFF73AFE9F
:1033E0002846FFF7B7FE012007E04846FFF790FAAE
:1033F0004FF0FF3001E04FF0FF3005B0BDE8F08343
:1034000010B588B000240594069407AA06A905A85B
:10341000FEF7D2FF059B0293069B0193009423467F
:10342000079A17491748FFF77FFF174B1860C0B17D
:1034300000F04CFB012815D14FF0500383F31188A5
:10344000BFF36F8FBFF34F8F104B4FF0FF321A60F7
:103450000F4B01221A600F4B00221A60FFF7ECF8A5
:1034600003E00020B0F1FF3F01D008B010BD4FF0E5
:10347000500383F31188BFF36F8FBFF34F8FFEE7C5
:103480003C4800088532000894140020981400205D
:10349000AC140020B4140020024A136801331360F6
:1034A000704700BF90140020014B1868704700BFA0
:1034B000B4140020F8B53A4B1B68002B64D1394B8B
:1034C0001D6801351D60C5B9374B1B681B6843B1CA
:1034D0004FF0500383F31188BFF36F8FBFF34F8F0B
:1034E000FEE7314A1168314B186810601960304AA4
:1034F000136801331360FFF797FD2E4B1B68AB4237
:1035000038D900272C4B1B68DB6A03EB83039A0036
:103510002A4B9B58012B3CD901273AE00127224B2B
:103520001B681B6843B3204B1B68DB68DC6863685F
:103530009D4226D3261D3046FEF788FFA36A1BB1A5
:1035400004F11800FEF782FFE36A1D4A12689342F5
:1035500001D91B4A136003EB83039A0031461748D5
:103560001044FEF74FFFE26A134B1B68DB6A9A4276
:10357000D4D2D4E70027D2E70E4B4FF0FF321A60C7
:10358000C0E70C4A1360BDE70E4A136801331360AD
:1035900000270D4B1B6803B101273846F8BD00BF5B
:1035A00090140020B414002000150020FC1400200A
:1035B000A0140020981400208C1900202C15002045
:1035C000B0140020A8140020A414002038B5354BF6
:1035D0001B6843B94FF0500383F31188BFF36F8F1B
:1035E000BFF34F8FFEE7FEF79DFF2E4B1A68013A9F
:1035F0001A601B68002B4FD12B4B1B680BB90024A2
:103600004BE00024294B1B681BB3284BDB68DC68AC
:1036100004F11800FEF71AFF251D2846FEF716FFD5
:10362000E06A234B1B68984201D9214B186000EBDC
:10363000800029461F4B03EB8000FEF7E3FEE26AA1
:103640001D4B1B68DB6A9A42DCD31C4B01221A60BB
:10365000D8E70CB1FFF7E8FC194B1C6884B9174B8D
:103660001C68D4B14FF0E0234FF08052C3F8042D12
:10367000BFF34F8FBFF36F8F01240EE0013C07D0E3
:10368000FFF718FF0028F9D00C4B01221A60F5E76C
:103690000B4B00221A60E2E70024FEF765FF20468C
:1036A00038BD00BF90140020B8140020E81400209A
:1036B000B01400202C1500208C190020A414002028
:1036C000A814002010B5A8B10446104B1B6843B1E4
:1036D0004FF0500383F31188BFF36F8FBFF34F8F09
:1036E000FEE7FFF7D9FE00212046FFF7DFFDFFF7D9
:1036F0006DFF48B94FF0E0234FF08052C3F8042D1E
:10370000BFF34F8FBFF36F8F10BD00BF9014002029
:10371000204B1B681BB1204B01221A6070471E4BC7
:1037200000221A601D4B1B6803EB83018A001C49B1
:103730008A585AB90BB1013BF6E74FF0500383F3B7
:103740001188BFF36F8FBFF34F8FFEE7084603EB7F
:1037500083018A00024451684968516003EB830C7D
:103760004FEA8C020832024491420BD003EB8302F1
:1037700091000B4A0A445268D1680A4A1160074A0C
:1037800013607047486862469100054A0A445060D9
:10379000ECE700BF90140020A4140020B014002017
:1037A0002C1500208C19002058B110B50C46094A80
:1037B00011681831FEF731FE01212046FFF776FD32
:1037C00010BD4FF0500383F31188BFF36F8FBFF329
:1037D0004F8FFEE78C19002038B570B10D461446A6
:1037E0000A4A11681831FEF70DFE0CB14FF0FF3593
:1037F00021462846FFF75AFD38BD4FF0500383F3AA
:103800001188BFF36F8FBFF34F8FFEE78C19002035
:1038100038B5C368DC6824B304F118052846FEF700
:1038200015FE184B1B682BBB251D2846FEF70EFE08
:10383000E06A154B1B68984201D9134B186000EBE6
:1038400080002946114B03EB8000FEF7DBFDE26AA6
:103850000F4B1B68DB6A9A4211D901200D4B18608F
:1038600038BD4FF0500383F31188BFF36F8FBFF360
:103870004F8FFEE729460848FEF7C4FDE7E7002022
:10388000EEE700BF90140020B01400202C1500209B
:103890008C190020A4140020E8140020034B1B689E
:1038A0000360034B1B684360704700BFA0140020F7
:1038B000B4140020D8B170B50C46054601B3FEF72C
:1038C00031FE1B4B19686B68C81A2268B2F1FF3FC2
:1038D00027D0184E3668D5F800C0B44501D08B42C9
:1038E00024D9824215D80023236001241AE04FF026
:1038F000500383F31188BFF36F8FBFF34F8FFEE741
:103900004FF0500383F31188BFF36F8FBFF34F8FD6
:10391000FEE75B1A134423602846FFF7BFFF00242D
:1039200000E00024FEF720FE204670BD0124F9E7E8
:10393000B4140020A0140020014B01221A6070472B
:10394000A4140020054B1B6833B1054B1B680BB159
:10395000002070470220704701207047AC140020FF
:103960009014002000283BD038B504461E4B1B683D
:10397000834208D04FF0500383F31188BFF36F8F59
:10398000BFF34F8FFEE7036D43B94FF0500383F34E
:103990001188BFF36F8FBFF34F8FFEE7013B0365C5
:1039A000C16AC26C91421DD00BB1002038BD051D0B
:1039B0002846FEF74BFDE06CE062C0F13803A361DE
:1039C0000A4B1B68984201D9084B186000EB800035
:1039D0002946074B03EB8000FEF714FD0120E5E7C5
:1039E000002070470020E1E78C190020B01400206F
:1039F0002C150020064B1A681368B3FA83F35B0991
:103A0000036013B9D368186870470020704700BF7F
:103A1000901A002008B54160006191420CD8D21A7A
:103A200083699A4201D3012008BD011D094B186822
:103A3000FEF7F3FC0020F7E79A4201D2994206D242
:103A4000011D054B1868FEF7E8FC0020ECE701209B
:103A5000EAE700BF8C1A0020901A002030B583B02E
:103A6000FEF760FD114B1B681BB1FEF77DFD03B037
:103A700030BD0F4D2846FEF7B7FC0E4C2046FEF732
:103A8000B3FC0D4B1D600D4B1C60002300930C4BD1
:103A90000C4A10210A20FFF766F8044B1860002832
:103AA000E3D00949FFF782FADFE700BF881A002058
:103AB000A81A0020941A0020901A00208C1A0020C6
:103AC00090190020E01900204448000810B588B083
:103AD000FFF7C4FF124B1B68CBB10024059406947A
:103AE00007AA06A905A8FEF773FC059B0293069B8F
:103AF0000193022300932346079A0A490A48FFF7D5
:103B000013FC0A4B186010B1012008B010BD4FF033
:103B1000500383F31188BFF36F8FBFF34F8FFEE71E
:103B2000881A00204C480008093E0008841A00202A
:103B3000B8B19C4603461848006858B300B585B034
:103B400000910192029305291CDCFFF7FBFE02287D
:103B500010D000231A4669460F480068FFF74CF85A
:103B600015E04FF0500383F31188BFF36F8FBFF35D
:103B70004F8FFEE70023069A694607480068FFF763
:103B80003BF804E0002362466946FFF7F9F805B008
:103B90005DF804FB00207047881A002070B582B0E1
:103BA0001A4B1B681A6852B3DB681E68DC68251D57
:103BB0002846FEF74BFC636A20469847E369012BD1
:103BC000EED1A36933449E4207D263602461294643
:103BD0000E4B1868FEF721FCE2E7002100910B462E
:103BE00032462046FFF7A4FF0028D9D14FF05003FA
:103BF00083F31188BFF36F8FBFF34F8FFEE7044A43
:103C0000106802490860136002B070BD901A00206D
:103C10008C1A002038B50546FFF746FC0446074BD2
:103C20001B68834205D800232B60044B1C60204690
:103C300038BDFFF7B3FF01232B60F6E7801A0020A1
:103C400070B582B006460D4614490968C968CC684B
:103C5000201DFEF7FBFBE169012904D0636A2046C1
:103C6000984702B070BDA16933462A4631442046C8
:103C7000FFF7D0FE0028F1D0002100910B4632461C
:103C80002046FFF755FF0028E8D14FF0500383F39B
:103C90001188BFF36F8FBFF34F8FFEE7901A00209C
:103CA00070B582B006460C46FFF7F6FB01A8FFF799
:103CB000B1FF019B23BB054644B9B0420CD3FFF7CB
:103CC00085FC29463046FFF7BBFF1BE00E4B1B6807
:103CD0001C68B4FA84F464092246711B0B4B186803
:103CE000FFF778F9FFF772FC60B94FF0E0234FF06F
:103CF0008052C3F8042DBFF34F8FBFF36F8F01E0E5
:103D0000FFF764FC02B070BD8C1A0020881A0020F6
:103D100010B588B002E0049B002B0FDA002204A942
:103D2000384B1868FFF792F8002869D0049B002BE5
:103D3000F1DA07990698059B9847ECE7069C6369BA
:103D400013B1201DFEF782FB03A8FFF763FF049B5E
:103D5000092BE3D801A252F823F000BF853D0008EB
:103D6000853D0008853D00081D3D0008CB3D00084D
:103D7000F13D0008853D0008853D00081D3D000817
:103D8000CB3D0008059BA169024619442046FFF778
:103D900041FE0028C2D0636A20469847E369012BA0
:103DA000BCD1A269002100910B460598024420462F
:103DB000FFF7BEFE0028B1D14FF0500383F3118806
:103DC000BFF36F8FBFF34F8FFEE70599A16131B14C
:103DD0000346024601442046FFF71CFE9EE74FF0D3
:103DE000500383F31188BFF36F8FBFF34F8FFEE74C
:103DF00094F82C30002B91D12046FEF789FD8DE7F9
:103E000008B010BD881A002000B583B001A8FFF7E4
:103E1000F1FD0199FFF744FFFFF77AFFF6E7000095
:103E2000FCF70EFE0B480C490C4A002302E0D45864
:103E3000C4500433C4188C42F9D3094A094C0023F6
:103E400001E013600432A242FBD300F037F8FCF724
:103E500081FC7047000000206000002054490008E9
:103E600060000020081C0020FEE700000EB46FF088
:103E7000004100B59CB01DAB0290069007910491E3
:103E80000848094953F8042B0591006802A90193D9
:103E900000F09AF90022029B1A701CB05DF804EB46
:103EA00003B07047100000200802FFFF03460244E1
:103EB000934200D1704703F8011BF9E770B5002663
:103EC0000C4D0D4C641BA410A64209D100F084FCDB
:103ED00000260A4D0A4C641BA410A64205D170BDF1
:103EE00055F8043B98470136EEE755F8043B9847F0
:103EF0000136F2E74C4900084C4900084C490008DB
:103F000050490008704770470A44914200F1FF335E
:103F100000D1704710B511F8014B914203F8014FE1
:103F2000F9D110BD38B50546002940D051F8043C00
:103F30000C1F002BB8BFE41800F0DEF81C4A136811
:103F400033B9636014602846BDE8384000F0DAB841
:103F5000A34208D9206821188B4201BF19685B6809
:103F600009182160EDE71A465B680BB1A342FAD944
:103F700011685018A0420BD12068014450188342A8
:103F80001160E0D118685B68084410605360DAE79C
:103F900002D90C232B60D6E7206821188B4201BF81
:103FA00019685B680918216063605460CBE738BD0D
:103FB000001C002070B50F4E0C463168054611B943
:103FC00000F0A8FB30602146284600F0A3FB431C0C
:103FD00003D14FF0FF34204670BDC41C24F003040D
:103FE000A042F8D0211A284600F094FB0130F2D10B
:103FF000EFE700BFFC1B00202DE9F843CD1C25F0A6
:10400000030508350C2D38BF0C25002D064601DBB5
:10401000A94204D90C2333600020BDE8F883DFF8FF
:10402000D48000F069F8D8F800301C4644BB29461B
:104030003046FFF7BFFF431C044658D1D8F8004074
:104040002746002F43D1002C4BD0236839463046F9
:1040500004EB030900F05EFB814542D12168304644
:104060006D1A2946FFF7A6FF01303AD023682B448A
:104070002360D8F800305A6862BBC8F800700FE0BF
:104080002268521B20D40B2A17D96119A34225603C
:1040900018BF5960636808BFC8F8001062514B60D0
:1040A000304600F02FF804F10B00231D20F007002C
:1040B000C21A1CBF1B1AA350AFE76268A3420CBF11
:1040C000C8F800205A60EBE723466468AEE73C4638
:1040D0007F68B6E71A465B68A342FBD100235360B2
:1040E000DEE70C233046336000F00CF894E70560FF
:1040F000D6E700BF001C00200148FFF703BF00BF48
:10410000F81B00200148FFF7FEBE00BFF81B00208F
:104110002DE9F0471F468E688246BE420C46904607
:104120000B682DD8B1F90C2012F4906F26D0656978
:10413000096905EB4505A3EB010905EBD5757B1C6A
:104140004B446D109D4238BF1D46530527D5294667
:10415000FFF752FF064660B34A462169FFF7D4FED7
:10416000A38923F4906343F08003A38126614E4426
:1041700026603E466561A5EB0905A560BE4200D9F3
:104180003E4632464146206800F0AAFA0020A36865
:104190009B1BA360236833442360BDE8F0872A4655
:1041A00000F0D6FA06460028E0D150462169FFF714
:1041B000B9FE0C23CAF80030A3894FF0FF3043F05A
:1041C0004003A381E9E700002DE9F04F98468B8971
:1041D00007461B060D4614469DB010D50B6973B9F2
:1041E0004021FFF709FF2860286130B90C233B60AC
:1041F0004FF0FF301DB0BDE8F08F40236B6100230E
:10420000099320238DF8293030234FF00109CDF890
:104210000C80DFF898818DF82A3023469A4613F8EF
:10422000012B0AB1252AF9D1BAEB040B0BD05B465E
:10423000224629463846FFF76BFF013000F0A78081
:10424000099A5A4409929AF80030002B00F09F8096
:1042500000234FF0FF32CDE905230AF1010A049350
:1042600007938DF853301A935446052214F8011B16
:104270004E4800F05FFA049AD8B9D00644BF202314
:104280008DF85330110744BF2B238DF853309AF823
:1042900000302A2B15D0544600204FF00A0C079A04
:1042A000214611F8013B303B092B4BD9B0B10792A5
:1042B00014E0A0EB080309FA03F31343A2460493A6
:1042C000D2E7039B191D1B680391002BBBBF5B4208
:1042D00042F0020207930793B8BF049223782E2B73
:1042E0000AD163782A2B32D1039B02341A1D1B6832
:1042F000039243EAE3730593DFF8B4A00322504628
:10430000217800F017FA38B14022049BA0EB0A0094
:10431000824013430134049314F8011B06222548FC
:104320008DF8281000F006FA002836D0224B1BBB6F
:10433000039B073323F0070308330393099B33449C
:1043400009936AE70C4601200CFB0232A8E7002320
:104350004FF00A0C194601340593204610F8012B42
:10436000303A092A03D9002BC6D00591C4E7044688
:1043700001230CFB0121F0E703AB00932A463846EA
:104380000E4B04A9AFF30080421C0646D6D1AB8980
:104390005B063FF52DAF09982CE703AB00932A4647
:1043A0003846064B04A900F07DF8EDE710490008F7
:1043B000164900081A4900080000000011410008D1
:1043C0002DE9F047164698468A680B6907469342DE
:1043D000B8BF1346336091F843200C46DDF82090B7
:1043E0000AB1013333602368990642BF3368023350
:1043F0003360256815F0060506D104F1190AE36853
:1044000032689B1AAB422BDC94F843302268003BA5
:1044100018BF0123920630D44146384604F14302C6
:10442000C847013023D02368226903F00603042B18
:1044300014BF002533684FF0000608BFE56804F19B
:104440001A0408BFED1A54F8123C08BF25EAE575B6
:104450009342C4BF9B1AED18B5421AD1002008E060
:104460000123524641463846C847013003D14FF038
:10447000FF30BDE8F0870135C1E73020E11881F851
:1044800043005A1C94F845102244023382F843102A
:10449000C2E70123224641463846C8470130E6D0EC
:1044A0000136D9E72DE9FF470F7E9146782F8046E8
:1044B0000C469A460C9E01F1430207D8622F0AD897
:1044C000002F00F0D180582F00F0B88004F1420690
:1044D00084F842703AE0A7F16303152BF6D801A1E6
:1044E00051F823F03D45000851450008CD4400082F
:1044F000CD440008CD440008CD44000851450008D3
:10450000CD440008CD440008CD440008CD44000847
:104510004F4600087B45000809460008CD440008C6
:10452000CD44000871460008CD4400087B450008D2
:10453000CD440008CD4400081146000833681A1D18
:104540001B68326004F1420684F8423001239CE08B
:1045500033682068191D3160060601D51D6803E027
:104560004506FBD5B3F90050002D03DA2D236D422B
:1045700084F843300A23584811E02168336808065C
:1045800053F8045B02D4490648BFADB26F2F3360C5
:1045900014BF0A2308235048002184F8431066689A
:1045A000002EA66005DB21682E4321F00401216066
:1045B0004BD01646B5FBF3F103FB1157C75D06F868
:1045C000017D2F46BB420D46F4D9082B0BD1236841
:1045D000DF0708D5236961689942DEBF302306F8FA
:1045E000013C06F1FF36921B22614B4621464046B4
:1045F000CDF800A003AAFFF7E3FE01304AD14FF047
:10460000FF3004B0BDE8F087236843F02003236047
:104610007827324884F84570236831681F0651F8BE
:10462000045B02D45F0648BFADB23160D90744BF16
:1046300043F0200323601DB11023ADE72648E9E7CE
:10464000236823F020032360F6E71646BDE73368AE
:104650002568181D616930602E061B6801D5196038
:1046600002E06806FBD51980002316462361BCE7EB
:10467000336800211A1D32601E686268304600F0FF
:1046800059F808B1801B606063682361002384F8D7
:104690004330AAE73246494640462369D0470130B5
:1046A000ADD023689B0713D4E068039B9842B8BF42
:1046B0001846A6E70123324649464046D047013016
:1046C0009DD00135E36803995B1AAB42F2DCEBE75E
:1046D000002504F11906F5E72149000832490008D0
:1046E000884210B501EB020402D98442234607D860
:1046F000431EA14208D011F8012B03F8012FF8E75F
:10470000014602448A4200D110BD13F8014D02F85F
:10471000014DF7E738B50023054D044608462B60E8
:1047200000F04CF8431C02D12B6803B1236038BD64
:10473000F41B0020034610B5C9B202449342184648
:1047400001D1002003E0047801338C42F6D110BD82
:104750002DE9F041074614460D4621B91146BDE842
:10476000F041FFF749BC2AB9FFF7DCFB2546284694
:10477000BDE8F08100F01AF88442064602D8B4EB96
:10478000500FF4D821463846FFF736FC804608B96A
:104790004546ECE7B4422246294628BF3246FFF799
:1047A000B3FB29463846FFF7BDFBF1E751F8043C5F
:1047B000181F002BBCBF0B58C0187047044A05498E
:1047C0001368002B08BF0B4618441060184670474A
:1047D000041C0020081C0020F8B500BFF8BC08BC71
:1047E0009E467047F8B500BFF8BC08BC9E467047AF
:1047F00054656D70657261747572653A2025642E1A
:104800002530326420430D0A000000006D795461A8
:10481000736B3034000000004779726F5265616439
:104820000000000054656D70526561640000000076
:1048300050726573656E74446174610049444C45FF
:1048400000000000546D725100000000546D722091
:10485000537663000C4800080000000000000000D0
:10486000000000000000000000020000080000003E
:1048700000000000000000001848000800000000D0
:104880000000000000000000000000000002000026
:10489000180000000000000000000000244800088C
:1048A0000000000000000000000000000000000008
:1048B00000020000100000000000000000000000E6
:1048C0003048000800000000000000000000000068
:1048D00000000000000200002800000000000000AE
:1048E00000000000000000000102030400000000BE
:1048F000000000000102030406070809010200008D
:1049000002030405060708090A0B0C0D0E0F101010
:10491000232D302B2000686C4C00656667454647A8
:10492000003031323334353637383941424344452B
:10493000460030313233343536373839616263649A
:0449400065660000A8
:08494400CCB7FF7F0100000069
:04494C001505000845
:04495000F104000866
:104954000024F4000100000010000000AAAAAAAA82
:104964001400002000000000BC1A0020241B0020BA
:104974008C1B00200000000000000000000000006C
:104984000000000000000000000000000000000023
:104994000000000000000000000000000000000013
:1049A4000000000000000000000000000000000003
:0400000508003E2190
:00000001FF
